:020000040800F2
:10000000A808002001010008DD090008D90900083E
:10001000DB090008C30100089D0A00080000000079
:10002000000000000000000000000000010A0008BD
:10003000C501000800000000FF090008030A0008CD
:100040001B0100081B0100081B0100081B01000820
:100050001B0100081B0100081B0100081B01000810
:100060001B0100081B0100081B0100081B01000800
:100070001B0100081B0100081B0100081B010008F0
:100080001B0100081B0100081B0100081B010008E0
:100090001B0100081B0100081B0100081B010008D0
:1000A0001B0100081B0100081B0100081B010008C0
:1000B0001B0100081B0100081B0100081B010008B0
:1000C0001B0100081B0100081B0100081B010008A0
:1000D0001B0100081B0100081B0100081B01000890
:1000E0001B0100081B0100081B010008DFF80CD0F1
:1000F00000F02AF800480047BD0A0008A8080020C0
:100100000648804706480047FEE7FEE7FEE7FEE7B1
:10011000FEE7FEE7FEE7FEE7FEE7FEE7550A00081A
:10012000ED000008D2B201E000F8012B491EFBD21D
:1001300070470022F6E710B513460A4604461946F2
:10014000FFF7F0FF204610BD064C074D06E0E068C3
:1001500040F0010394E8070098471034AC42F6D30E
:10016000FFF7C8FFE40D0008040E000870B58C18F6
:1001700010F8015B15F0070301D110F8013B2A11BB
:1001800006D110F8012B03E010F8016B01F8016BA8
:100190005B1EF9D12B0705D40023521E0DD401F8A4
:1001A000013BFAE710F8013BCB1A921C03E013F86D
:1001B000015B01F8015B521EF9D5A142D8D30020A2
:1001C00070BDFEE77047000070B5044600F0F2F81D
:1001D0000546601C02D004480078044400F0EAF8A8
:1001E000401BA042FAD370BDF80300202DE9F84F60
:1001F000DFF890A100220AF1040B144601274FF00A
:100200000F090BF1040E00BF0B6807FA04F52B4031
:10021000AB4274D1DFF870C14E68A6EB0C0866459E
:100220002BD00DDC032E34D005DC36B3012E19D0D3
:10023000022E2FD11BE0112E16D0122E2AD119E03A
:10024000B8F5881F19D006DCB8F5803F15D0B8F591
:10025000801F1FD111E0B8F5001F0ED0B8F5041FA4
:1002600018D10AE0CA6815E0CA68121D12E0CA680F
:1002700008320FE0CA680C320CE08A682AB1012A01
:100280004FF0080203D0456104E0042202E005615A
:1002900000E00022FF2B01D8064601E000F1040631
:1002A0004FEA840501D9A5F12005D6F800C009FA66
:1002B00005F82CEA080C02FA05F54CEA050CC6F81C
:1002C00000C04D68ED0057D5304DAE6946F00106CF
:1002D000AE61AD6924F0030605F0010500952C4DD3
:1002E00006EB050CDCF80850A6074FEA167809FA69
:1002F00008F6B543274EB04202D1002610E03BE09D
:10030000254EB04201D101260AE0244EB04201D16F
:10031000022605E0224EB04201D1032600E0042669
:1003200006FA08F62E43CCF808604D68DAF800604B
:10033000ED03554601D51E4300E09E432E604D68F7
:10034000DBF80060AD035D4601D51E4300E09E432F
:100350002E604D68DEF80060ED02754601D51E4343
:1003600000E09E432E604D68AD020E4D2E6801D513
:100370001E4300E09E432E60641C102CFFF444AF2B
:10038000BDE8F88F00040140000011100010024089
:100390000000014000080140000C01400010014035
:1003A000001401400C0401400AB1016170470904C6
:1003B000FBE700000148806870470000F803002058
:1003C000024881680278114481607047F803002078
:1003D000074810B5016841F010010160032000F0EA
:1003E00067F8002000F006F800F024F8002010BDA7
:1003F0000020024070B50D4D04464FF47A71287804
:10040000B1FBF0F00A490968B1FBF0F000F0D0FA56
:1004100048B9102C07D200222146501E00F028F8BF
:1004200000206C6070BD012070BD0000F80300204A
:10043000040400200C4808B5816941F00101816184
:10044000816901F001010091C16941F08051C161F0
:10045000C06900F0805000900448416821F0E061DC
:1004600041F00071416008BD0010024000000140F1
:10047000F0B40E4B1B680C46C3F30223C3F107050F
:10048000042D00D90425191D072901D2002300E0FD
:10049000DB1E012606FA05F1491E214099409E40C7
:1004A000761E16403143F0BC00F099BA0CED00E026
:1004B000064900F0070208684FF6FF03184040EABB
:1004C0000220034A10430860704700000CED00E072
:1004D0000000FA052DE9F047DFF8548105460E4685
:1004E000D8F8000000F00700B0420CD2D8F8001095
:1004F00021F007013143C8F80010D8F8000000F0DF
:100500000700B0426FD128684A4C810712D54007D6
:1005100003D5606840F4E06060602878000703D588
:10052000606840F4605060606068A96820F0F00086
:10053000084360602878C00744D06868012816D056
:100540002168022816D0890700294CDA616821F059
:10055000030101436160FFF72DFF6968074641F21F
:10056000883001290ED00229814618D026E0216862
:100570008903E9E78901E7E7FFF71CFFC11B49454C
:1005800001D918E081466068C0F381000128F3D1E9
:1005900018E000BFFFF70EFFC11B49450BD860688C
:1005A000C0F381000228F5D10CE000BFFFF702FF85
:1005B000C11B494502D90320BDE8F087606810F0EF
:1005C0000C0FF3D1D8F80010404601F00701B142FA
:1005D0000BD9016821F0070131430160006800F088
:1005E0000700B04201D00120E6E72878400705D592
:1005F0006068E96820F4E0600843606028780007DC
:1006000006D56068296920F4605040EAC100606046
:1006100000F016F86168084AC1F30311515CC84044
:10062000064908600020FFF7E5FE0020C4E700004F
:100630000020024000100240D40D000804040020F5
:1006400012A185B00FC98DE80F0014A0144A0068EC
:1006500004905168134801F00C03042B10D0082BB0
:100660000ED1C1F38343C9031DF803000AD55168B5
:1006700004AAC1F34041515C0A4A5043B0FBF1F077
:1006800005B0704708494843FAE700000203040533
:10069000060708090A0B0C0D0E0F101001020000CE
:1006A0000010024000127A0000093D002DE9F84FC9
:1006B00004460078B94DC00748D06868C0F381008F
:1006C000012807D06868C0F38100022809D1686852
:1006D000C00306D52868800338D5606800286FD02D
:1006E00034E06068B0F5803F0BD010B1B0F5A02FBA
:1006F00011D0286820F480302860286820F48020F9
:1007000002E0286840F480302860606888B1FFF714
:1007100051FE064609E0286840F480202860F0E792
:10072000FFF748FE801B642875D828688003F7D53A
:100730000CE0FFF73FFE064605E000BFFFF73AFE7C
:10074000801B6428F0D828688003F7D42078944E62
:1007500080074FF001094FF000083BD5686810F0A2
:100760000C0F07D06868C0F38100022809D16868BF
:10077000C00306D42868800714D5206901281FD13A
:1007800010E02069B0B1C6F80090FFF713FE0746ED
:1007900005E000BFFFF70EFEC01B0228C4D8286882
:1007A0008007F7D52868616920F0F80040EAC100A9
:1007B00028600FE0C6F80080FFF7FCFD074606E062
:1007C000E9E000BFFFF7F6FDC01B022823D8286828
:1007D0008007F7D4207800072CD57248A169D9B1D9
:1007E000C0F80090FFF7E6FD074604E0FFF7E2FDE2
:1007F000C01B02280FD8686A8007F7D56A484FF4F3
:10080000FA510068B0FBF1F0009000BF0098411E63
:100810000091FAD20EE080E0C0F80080FFF7CAFD38
:10082000074604E0FFF7C6FDC01B022875D8686ABA
:100830008007F7D42078400760D5E8690027C0001A
:1008400008D4E86940F08050E861E869012700F0C9
:100850008050009055480168C90513D4016883464B
:1008600041F480710160FFF7A5FD824606E000BFFC
:10087000FFF7A0FDA0EB0A0064284ED8DBF80000CB
:10088000C005F5D5E06801280AD008B1052813D0C5
:10089000286A20F001002862286A20F0040002E0A3
:1008A000286A40F001002862E06841F2883B98B174
:1008B000FFF780FD82460BE0286A40F004002862C2
:1008C000EEE700BFFFF776FDA0EB0A0159455AD8C5
:1008D000286A8007F6D50CE0FFF76CFD824605E03C
:1008E000FFF768FDA0EB0A0159454CD8286A80073C
:1008F000F6D41FB1E86920F08050E861E06988B360
:100900006968C1F38101022945D00228C6F86080D8
:1009100004D0FFF74FFD044638E034E0FFF74AFD0E
:10092000074604E0FFF746FDC01B02282BD82868C5
:100930008001F7D4206AB0F5803F05D16868A168CE
:1009400020F4003008436860D4E90801084369686E
:1009500021F4741108436860C6F86090FFF72AFD1F
:10096000044606E015E000BFFFF724FD001B022847
:1009700009D828688001F7D50BE000BFFFF71AFD02
:10098000001B022802D90320BDE8F88F28688001E7
:10099000F4D40020F8E70120F6E700000010024040
:1009A00000004242800442420404002000700040E3
:1009B00010B5401EB0F1807F01D3012010BD4FF073
:1009C000E02460610F21601700F009F80020A061A9
:1009D00007202061002010BDFEE7FEE770470907F1
:1009E000090E002806DA00F00F0000F1E02080F880
:1009F000141D704700F1E02080F800147047704724
:100A00007047FFF7DDBC30B58FB028216846FFF78F
:100A100090FB14210AA8FFF78CFB01210804CDE903
:100A200000100024029402250491CDE907504FF4F0
:100A3000E01009906846FFF739FE0F20CDE90A055E
:100A40006802CDE90C4002210AA80E94FFF742FD8E
:100A50000FB030BD0D48016841F0010101604168EF
:100A60000B4A1140416001680A4A11400160016867
:100A700021F480210160416821F4FE0141604FF4BE
:100A80001F0181600449C0030860704700100240E4
:100A90000000FFF8FFFFF6FE08ED00E0FEE702E0D1
:100AA00008C8121F08C1002AFAD1704770470020F9
:100AB00001E001C1121F002AFBD1704786B0FFF789
:100AC00087FCFFF7A0FF00241748009401940294CC
:100AD0000394816941F020018161816901F0200165
:100AE0000491816941F00401816180690F4D00F03A
:100AF0000400049000221C212846FFF755FC1C200E
:100B000000900120CDE901040220039069462846A7
:100B1000FFF76CFB032000F02BF84C22962104A079
:100B200000F040F8F9E70000001002400008014022
:100B3000436F6E74726F6C6C65727354656368207A
:100B40002020000010B50024E0B2002100F078F869
:100B5000641C202CF8DB054A0020014602F15003FA
:100B600011541954401C5028FADB10BD0804002011
:100B700010B504460021092000F00AF907210B20D6
:100B800000F006F901210C2000F002F900210F20ED
:100B900000F0FEF8FFF7D6FF2146BDE810400A201E
:100BA00000F0F6B870B515460E46044604E02A4635
:100BB000314600F071F8641C20780028F7D170BD30
:100BC0002DE9F0470C46DFF870800121814018F8CC
:100BD00004000AB1084300E08843DFF8609008F899
:100BE0000400E70804F00706002208214846FFF742
:100BF000DBFB0025C7F10307761CAF4205D1304669
:100C000000F0AAF818F8040003E0002000F0A4F8AF
:100C1000002000F0A1F86D1C042DEEDB002208215D
:100C20004C464846FFF7C0FB2046BDE8F04701228E
:100C30000821FFF7B9BB00000804002000080140AC
:100C40002DE9F05F8046C70800F00709002607205D
:100C50000D468B4600EBC70ABE420DD1544607E055
:100C6000EA09E1B24846FFF7ABFF6806050E641ECD
:100C7000B4EBC70FF4DA05E0002000F06DF80020B7
:100C800000F06AF8761C042EE6DB024A02F808B08F
:100C9000BDE8F09F580400202DE9F0410F46164EA4
:100CA0000146012316F8310003EBC1044C2A04D09D
:100CB000522A11D125186D1C1AE025186D1C09E067
:100CC000315D0020FFF7BCFF00F018F83846FFF751
:100CD0007BFA641CA542F3DCBDE8F081715D1F2046
:100CE000FFF7AEFF00F022F83846FFF76DFA6D1EF1
:100CF000A542F3DAF0E700000000002070B50A4CCE
:100D00000025E67F615DE8B2FFF79AFF6D1C202D9C
:100D1000F8DB4F20211811F8011C2154401E002837
:100D2000F8DC267070BD00005804002070B5094C36
:100D30001F252678615DE8B2FFF782FF6D1EF9D5A9
:100D40000020211849782154401C5028F9DBE6770F
:100D500070BD00005804002070B50C4E05460024FC
:100D6000002210213046FFF71FFB05F0800204210E
:100D70003046FFF719FB6806050E012210213046A8
:100D8000FFF712FB641C082CEADB70BD0008014071
:100D90002DE9F0410E4D0E46074600220821284657
:100DA000FFF702FB00243846FFF7D6FF3046FFF777
:100DB000D3FF641C042CF6DB002208212846FFF731
:100DC000F3FA2846BDE8F04101220821FFF7ECBA0A
:100DD00000080140000000000000000001020304C0
:100DE00006070809040E000800000020080400009F
:100DF0006C010008DC10000808040020A0040000BA
:100E0000AE0A0008812F053E5B4F5B3E082C6B4FFE
:100E10006B081E1C3E7C3E1C082E183C7E3C1810A5
:100E20002C577D57101D1C5E7F5E0812042A181770
:100E3000113F05FFE7C3E7FF105A24102ADB101FFC
:100E40000530483A060E081E2629792926084E4004
:100E50007F050507081B253F081E5A3CE73C5A083A
:100E60001E7F3E1C1C08081E081C1C3E7F081E140A
:100E7000227F221408135F5F1903111E0506097FE4
:100E800001182E046689956A602A600119082E945B
:100E9000A2FFA294382C047E04402E10207E201045
:100EA000105B082A502B2A08081B1E100119081B6A
:100EB0000C1E0229982D383E383058250E3E0E065D
:100EC00072031A016C4113030719A629881A7F02BD
:100ED00019081E242A7F2A12081E23130864620898
:100EE0001E3649562050283B08073B3D031C224133
:100EF000083C41221C383E2A1C7F1C2A882A3E803E
:100F00001C0380706E39101901212A02BD29101EA0
:100F10002010080402081E3E5149453E283C427FED
:100F200040181E7249494946081E2141494D33085F
:100F30002D1814127FC01E2745454539081E3C4A0E
:100F4000494931081D41211109AA19901C49493606
:100F5000081E464949291EC819B441540280683CFC
:100F6000040814A12B05140119101C412214871127
:100F70002F050201590906801D415D594E081E7C4E
:100F80001211127C085A7F502E3E41414122101905
:100F90000819A0391819494F057F09090901202BA3
:100FA00051731019D71A7FC02B417F6719D82C4075
:100FB000413F204A7F791C057F400129081C021C03
:100FC00002282E057F040810082960395819504955
:100FD000883C51215E101C192946081A26701A32C5
:100FE000081E03017F0103081A3F471A3F083E1FEE
:100FF0002040201F103A38102E6314081463282C48
:10100000047804281E6159494D439019B839901A43
:1010100002702A20A01A417619101E04020102044F
:1010200008299719984D03030708B83C545478A829
:101030001D28444438082D384444441819082A28E7
:10104000B02638545454182E04087E0902183E184D
:10105000A4A49C78E81B0404081C03447D3E1920CA
:101060002D4080807A082C7F1028403C03417F1857
:101070001B057CA029304A7C30396029681DFC188A
:101080002424582A05075AFC2019921B0548701A77
:1010900024481C043F4407111F053C4040207C08A5
:1010A0003E1C2040201C101C30403C083B4428695A
:1010B0002E054C909090201D4464544C104503081C
:1010C00036416301774C034136E81D02010204C139
:0C10D000320182100400A24A040000005B
:04000005080000ED02
:00000001FF
